:0300000002231BBD
:0C231B00787FE4F6D8FD75814B02236248
:10101F0060640102000000000000000000000000FA
:10102F0000000000000000000000000000000000B1
:10103F0000000000000000000000000000000000A1
:10104F000000000000000000000000000000000091
:10105F000000000000000000000000000000000081
:10106F000000000000000000000000000000000071
:0D107F000000000000000000420173840822
:0B2DA90090D850EFF090D853EDF022CE
:052BFB00F07F0F7E00D9
:102C0000EF1FAA0670011E4A6013E4FCFDC3ED9499
:0D2C100045EC940150EA0DBD00010C80F070
:012C1D002294
:052DCD0090D012E0FFB0
:012DD20022DE
:052DD30090D854E0FF60
:012DD80022D8
:102C1E0090900374EFF090900D74E0F090900F741C
:102C2E00BFF090900D74FFF090900FF0909003F025
:012C3E002273
:102AC300E4FF7830E6FEEFC39E5015781FE62F240F
:102AD30000F582E43400F583E090D011F00F80E23A
:0A2AE300E490D013F0781FEE26F601
:012AED0022C6
:102B1800E4FF7830E6FEEFC39E5015781FE62F24B9
:102B280000F582E43400F583E090D011F00F80E2E4
:082B3800E490D013F0781FF6C1
:012B40002272
:0C2D9D0090D0117420F0E490D013F022CC
:062DD900E490D011F0228D
:102D0400E4FEEEC39F500C740A2EF8E690D011F046
:082D14000E80EFE490D013F0F3
:012D1C002294
:06262800E6540F7921F7D2
:10262E007821E6FF640170337834E66F602D90D820
:10263E00007411F0E4FD7F03122DA90F122DA90FC6
:10264E00122DA90F122DA990D8197401F07821E638
:10265E007834F6122C1E90023CE0227821E6FF64BC
:10266E00026004EFB4030E7821E6FF78346660054D
:06267E00A607122C1E222B
:10228800740A2FF8E6540F781DF664016007782168
:10229800E664016014781DE6FF6407600F7821E6A4
:1022A800FE64026004EEB40303022C1EEF640770A0
:1022B800617821E6FF64026005EF640370547820BA
:1022C800760190D2147401F07809E6700E760190C8
:1022D800B83A7440F090B83B7450F090D80074014C
:1022E800F0E490D85AF090D85B7407F090D85CF07E
:1022F800E490D85DF090D85E7407F090D85FF090C5
:10230800900774F7F090900D74DFF074FFF09090E0
:0323180007F022A9
:0225C700AE075D
:1025C900E4FD90D8557480F0782BE690D852F00845
:1025D900E690D851F008E690D850F0EDC39E50121D
:1025E900122DD3740A2DF8A60790D850E004F00DE7
:1025F90080E9782BE6FD701308E6B4020E08E67050
:102609000AEED3940240177F028010ED7010782CE7
:0E261900E6B4020A08E6B40205E4FF122288C5
:012627002290
:02173200AE0700
:10173400E4FF900207F090D8557480F0782BE6907F
:10174400D852F008E690D851F008E690D850F0EF5F
:10175400C39E501274352FF8E690D853F090D850A9
:10176400E004F00F80E9782BE6FC704008E66401A1
:10177400703A08E670367835E67822F6781B7601FA
:10178400E47820F6782EF6EED39401400B7836E612
:10179400FF7823F6540F08F6EED394025003021890
:1017A400957837E6540F7921F702262EEC703A78B3
:1017B4002CE66401703308E66401702D7835E6FF89
:1017C4007823F6540F08F6EED394014005783612C8
:1017D4002628EEC3940350030218957837E6540381
:1017E400640260030218958045782BE6702708E6AA
:1017F4006401702108E6B4021C7835122628EEC371
:10180400940250030218957836E654036402600388
:101814000218958019782BE6FF701808E6B40113B6
:1018240008E6B4030E7835E654036402706390D876
:1018340019F022EF703B782CE66401703408E664FA
:1018440007702E780976017835E690B83A30E40BC3
:101854007480F090B83B7452F080097440F090B8F2
:101864003B7450F0EED3940140277836E670228022
:1018740014782BE6701B08E6B4011608E6B40811C8
:101884007835E6700C90D8507408F090D8537401F1
:01189400F063
:011895002230
:0700030090B02E7420F022E2
:1028670090B02C747FF090B8167450F0E490B021BB
:10287700F090B02274C1F090B0287419F090900FC6
:10288700747FF074FF122BFB90B8147440122BFB6B
:1028970074C0122BFB74E0F07F0A7E00122C0074C8
:0928A700E4F090B82174E0F02285
:1029FA0090B83A7480F090B83B7452F0E490B01FEB
:102A0A00F090B020F090900D74E1F090900374FE75
:102A1A00F0741FF090900F74BFF074FFF090900D57
:062A2A00F0909003F02281
:1029C20090A03274E4F0E490D000F090D002741041
:1029D200F090D008740BF090D0097466F090D00A91
:1029E200740EF090D00B7471F0E490A030F09090DF
:0829F2001074EFF074FFF022F5
:102B680090DAFC740FF090DAA374E4F090DAA474AD
:102B780080F090B0307440F090D8007411F0E47890
:062B88002AF67809F6228E
:102C3F0090B03A74F8F090B092741FF090B0147492
:0F2C4F0038F090B0187410F090B01A740AF02298
:102C7C0090900774F7F074FFF090D2697405F0909F
:0C2C8C00D2027454F090D2677420F02241
:1028F900E490B000F090B08C7477F0E490B08DF073
:1029090090B08E7407F090B08F7477F090D11074F6
:1029190020F090D1147419F090D11574C2F07D7F14
:102929007F067E90122ABC7F017E00122C5E7DFFFD
:072939007F067E90022ABC1C
:1003AA0090022B74F0F090D1CCE0FFE4FCFDFE78D3
:1003BA0010120DD190022C120DE490D1CDE0FFE481
:1003CA00FCFDFE90022CE0F8A3E0F9A3E0FAA3E01A
:1003DA002FFFEE3AFEED39FDEC38FC7808120DD10C
:1003EA0090022C120DE490D1CEE0FB90022BE0FF9C
:1003FA00E4FCFDFEEB5FFFA3E0F8A3E0F9A3E0FA5B
:10040A00A3E02FFFEE3AFEED39FDEC38FC90022C0A
:10041A00120DE490D1CFE0FFE4FCFDFE7810120D3E
:10042A00D1900230120DE490D1D0E0FFE4FCFDFE41
:10043A00900230E0F8A3E0F9A3E0FAA3E02FFFEE80
:10044A003AFEED39FDEC38FC7808120DD1900230F5
:10045A00120DE490D1D1E0FB90022BE0FFE4FCFD09
:10046A00FEEB5FFF900230E0F8A3E0F9A3E0FAA305
:10047A00E02FFFEE3AFEED39FDEC38FC9002301227
:10048A000DE490D1D2E0FFE4FCFDFE7810120DD10C
:10049A00900234120DE490D1D3E0FFE4FCFDFE900B
:1004AA000234E0F8A3E0F9A3E0FAA3E02FFFEE3A62
:1004BA00FEED39FDEC38FC7808120DD190023412A9
:1004CA000DE490D1D4E0FB90022BE0FFE4FCFDFEAA
:1004DA00EB5FFF900234E0F8A3E0F9A3E0FAA3E0AF
:1004EA002FFFEE3AFEED39FDEC38FC900234120D86
:1004FA00E490D1D5E0FFE4FCFDFE7810120DD19016
:10050A000238120DE490D1D6E0FFE4FCFDFE900221
:10051A0038E0F8A3E0F9A3E0FAA3E02FFFEE3AFEF1
:10052A00ED39FDEC38FC7808120DD1900238120D25
:10053A00E490D1D7E0FB90022BE0FFE4FCFDFEEB58
:10054A005FFF900238E0F8A3E0F9A3E0FAA3E02FF6
:10055A00FFEE3AFEED39FDEC38FC900238120DE45C
:10056A00900230E0FCA3E0FDA3E0FEA3E0FF9002CE
:10057A002CE0F8A3E0F9A3E0FAA3E0FBC3120DAD67
:10058A00600302062D900234E0FCA3E0FDA3E0FE26
:10059A00A3E0FF90022CE0F8A3A3A3E0C3120DADE1
:1005AA00600302062D900238E0FCA3E0FDA3E0FE02
:1005BA00A3E0FF90022CE0F8A3A3A3E0C3120DADC1
:1005CA007061900234E0FCA3E0FDA3E0FEA3E0FF2B
:1005DA00900230E0F8A3E0F9A3E0FAA3E0FBC3122B
:1005EA000DAD703F900238E0FCA3E0FDA3E0FEA34E
:1005FA00E0FF900230E0F8A3A3A3E0C3120DAD70B0
:10060A0022900238E0FCA3E0FDA3E0FEA3E0FF9005
:10061A000234E0F8A3E0F9A3E0FAA3E0FBC3120D69
:10062A00AD603590905174F8F074FFF090900774B3
:10063A00F7F090900D74DFF074FFF0909007F0904F
:10064A00A0A0E04401F054FEF090D21C74FFF01414
:08065A00F07FF47E01122C0078
:010662002275
:102D4E001200031228671229FA122C3F122C7C1241
:052D5E0029C2022B68F0
:10108C006100000000FFFFFFFFFFFF000ED43231B4
:10109C0000888888201C0103800C07780A0DC9A0E1
:1010AC005747982712484C0000000101010101012B
:1010BC0001010101010101010101011D007251D069
:1010CC001E206E285500C48E2100001E000000005A
:1010DC000000000000000000000000000000000004
:1010EC0000FD001E4B325A10000A20202020202028
:1010FC00000000FC0057543032200A202020202011
:10110C002020016E020312F1230904018301000067
:10111C0065030C001000000000000000000000003F
:10112C0000000000000000000000000000000000B3
:10113C0000000000000000000000000000000000A3
:10114C000000000000000000000000000000000093
:10115C000000000000000000000000000000000083
:10116C000000000000000000000000000000000073
:10117C000000000000000000000000000000000063
:04118C00000000BFA0
:0B159D009001F2EBF0A3EAF0A3E9F0EC
:1015A80090021EE0FEA3E0FF90021DE02FFF9002D4
:1015B8001CE03EFE900221E02FFF900220E03E90CA
:1015C80001F5F0A3EFF0900227E0FF900226E02F4C
:1015D800FFE433FE900228E07C002FFFEC3E9001F0
:1015E800F7F0A3EFF0E47B0AFAF9F8900214E0FCB4
:1015F800A3E0FDA3E0FEA3E0FF120D1B9001F2E0C3
:10160800FBA3E0FAA3E0F9EF120BDFE47B0AFAF997
:10161800F8900214E0FCA3E0FDA3E0FEA3E0FF12B3
:101628000D1BE4FB7A01F9F8120D1B9001F2E0FBA7
:10163800A3E0FAA3E0F9900001EF120BF190021A6F
:10164800E0FEA3E0900002120BF19001F6E090009A
:1016580003120BF1EEC4F8540FC868FFAD079001F0
:10166800F5E02D900004120BF1900225E0900005A2
:10167800120BF19001F8E0900006120BF190022491
:10168800E0C4F8540FC868FFAC079001F7E02C904D
:101698000007120BF190021DE0900008120BF19068
:1016A800021FE0900009120BF1900226E0540FC4CB
:1016B80054F0FFA3E0540F2F90000A120BF1900290
:1016C8001EE0C4F8540FC868FFAC0790021CE07E07
:1016D800007806C333CE33CED8F92CFF900226E02B
:1016E800C4540F25E025E02FFFA3E0C4540F2F902A
:1016F800000B120BF190021BE090000C120BF19002
:101708000225E090000D120BF1900224E02D9000CC
:101718000E120BF1900229E025E04418FFA3E02502
:0A172800E025E04F900011020BF1E4
:0B2422009001F2EBF0A3EAF0A3E9F058
:10242D00E4FFFE9001F2E0FBA3E0FAA3E0F98E8257
:10243D00758300120BB22FFF0EEEB47FE6C3E49F3F
:10244D00FF9001F2E0FBA3E0FAA3E0F990007FEF2B
:10245D00120BF1E4FFFEEE2480FDE433FC9001F25B
:10246D00E0FBA3E0FAA3E0F98D828C83120BB22F6F
:10247D00FF0EEEB47FE0C3E49FFF9001F2E0FBA3FB
:0C248D00E0FAA3E0F99000FFEF020BF171
:0711900044024100000000D1
:10119700014800014B00014900014700014A004195
:0B11A700024B0041024A0041024C00D4
:101C5F007847E630E72B90C19EE0540F602090C18B
:101C6F00AF74C1F090B012743CF090DAA3744BF0E3
:101C7F0090DAA47405F090B0307446F0800312250A
:101C8F00007847E6FF30E62590C19CE054076401D9
:101C9F0090B00B600574E5F0801374C5F090C19699
:101CAF00740BF0E49001C2F09001BA04F0EF20E55C
:101CBF00047F0180027F009001BAE05F605A90C1FB
:101CCF00A3E0FF9001C2E0FE2491F582E43401F518
:101CDF0083EFF0EEB4010E900192E05470131354A1
:101CEF003F9001C0F09001C0E02401FFE433FE906B
:101CFF0001C2E0B50711E4B5060D90C1967403F06B
:101D0F00E49001BAF080119001C2E004F090C1B6E6
:101D1F00E0FF7847F630E5A67847E6FD30E43390EC
:101D2F00C1B67410F0900191E0FE540F9001C7F00E
:101D3F009001C0E0700C9001C7E0B401059001C59F
:101D4F00800DE49001C6F0EE644F60069001B3740D
:101D5F0001F0ED30E22190B00B74C5F09001B3E0CB
:101D6F006005E4F00227369001C6E0600A9001C5D5
:081D7F007401F09001BFF02295
:10189600E4900206F0781C76FF7830F67FFF90D051
:1018A6000FE0541F782FF6122DCDEF54F0781CF66A
:1018B600EF540F782BF6122DCD782CA607122DCDCE
:1018C600782DA607782FE6C394044011122DCD7803
:1018D60030A60706E6D3941040030219E8782FE6EF
:1018E600D394044020E4900206F0900206E0C37808
:1018F60030965011122DCD900206E02435F8A60739
:10190600E004F080E5781CE670030219E024F0702C
:10191600030219AD24F070030219E024E0603924B3
:10192600F0604F24F070030219E024D060112410F7
:1019360060030219E87830E6FF1217320219DB78E5
:1019460030E6FFC39411505D1225C7122DD97830A9
:10195600E6FF122D040219E3782DE6B45012783012
:10196600E6B4010C782FE6B405067835E6781FF65E
:101976008063782DE6B4500E782FE6B40408122D55
:10198600D9122AC3801F782DE6B45008782FE6B402
:1019960003028006782DE6B43C05122DD980069008
:1019A600D0117410F08036782DE6B4500E782FE6FC
:1019B600B40408122DD9122B18800F782DE6B450D6
:1019C6000F782FE6B40309122DD9E4781FF68003A9
:1019D600122DD98008122DD98003122DD9E490D06A
:0219E60013F0FC
:0119E80022DC
:03000B0002294087
:10294000C0E0C0F0C083C082C0D075D000C000C05D
:1029500001C002C003C004C005C006C007122D9DFF
:10296000D28C758CFD758AA8D007D006D005D0040E
:10297000D003D002D001D000D0D0D082D083D0F00C
:03298000D0E03272
:03001B0002278435
:10278400C0E0C083C082C0D0C28E758DB1758BE0AD
:10279400900248E004F07006900247E004F0D28E04
:1027A400900247E0B4011DA3E0B4901890B8B0E0E3
:1027B40030E40B900247E4F0A3F0C28E800690B0A0
:0D27C4000B74D5F0D0D0D082D083D0E0329D
:102C980090B08D7407F090D220E030E00E90D21CF6
:0C2CA800E04401F054FEF0781E7601229A
:030013000221E2E5
:1021E200C0E0C0F0C083C082C0D075D000C000C0C3
:1021F20001C002C003C004C005C006C0079001BFF1
:10220200E4F090A015E030E21F90A0A07404F0E486
:10221200F090C1B6E07847F6FF74EFF0EF6420600B
:1022220007C2AF121C5FD2AF90024BE0602990A0B0
:1022320016E030E72290A0A174FFF0747FF09001C5
:10224200B874FFF0758CFD758AA8D28C121896C2EC
:102252008C758CFD758AA890A015E030E00D122CCB
:102262009890A0A0E04401F054FEF0D007D006D030
:1022720005D004D003D002D001D000D0D0D082D07B
:0622820083D0F0D0E03231
:1011B2005702140001110C037803200018001600D6
:1011C2002A0520050010020E010143020E0A020048
:0F11D200430211040160460208000200020007F8
:102A6200900208E090D20CF0900209E090D20DF0B2
:102A720090020AE090D20EF090020BE090D20FF09A
:102A820090020CE090D210F090020DE090D211F082
:012A92002221
:102BB300E490023DF090023F04F0E490023CF09078
:102BC300023E04F0E4900246F0900240F090024985
:042BD300F002001EEE
:10123F0042105A6801130000000000000000000077
:10124F0000000000000000000000000000004F54EC
:10125F00418000FF0000006C0000000058011210D8
:10126F007B00005100000000000000004F3642805C
:10127F0000FF000001FF0000000000000000000060
:10128F00000000000000000000004F28438001FF15
:10129F000504000000000000000000000000000036
:1012AF0000000000000000004F1A448101FF000001
:1012BF00000000000000000000000000000000001F
:1012CF000000000000004F2C508101FF02000000C1
:1012DF0000000000000000000000000000000000FF
:1012EF00000000004F1E518101FF000000000000B0
:1012FF0000000000000000000000000000000000DF
:10130F0000004F22068101FF820000000000000054
:10131F0000000000000000000000000000000000BE
:10132F004F22068101FF8200000000000000000034
:10133F0000000000000000000000000000004F222D
:10134F00068101FF02000000000000000000000005
:10135F000000000000000000000000004F24068184
:10136F0001FF1A0100000000000000000000000053
:10137F00000000000000000000004F2C508101FF12
:10138F0082000000000000000000000000000000CC
:10139F00000000000000000044125A9001000000FD
:1013AF00000000000000000000000000000000002E
:1013BF00000000000000000000000000000000001E
:1013CF00000000000000000000000000000000000E
:1013DF0000000000000000000000000000000000FE
:1013EF0000000000000000000000000000000000EE
:0213FF000000EC
:1011E1004101CE0041018E004101B3004101B20035
:1011F1004101C4004101B1004101CC014101C900DB
:101201004101DB014101CA004101BA004101C600AF
:101211004101BF004101C500410190004101B400FD
:101221004101B6004101B7014101B50141018D0004
:0D1231004101D9004601D342105A68011353
:0B2DB400EF1FAC0670011E4C70F622F1
:10250000E49001B3F09001C6F09001C5F09001BFD6
:10251000F09001C2F09001C0F090024BF09001B534
:1025200004F0E49001DDF09001BDF09001CAF0905C
:10253000018B7406F0E49001DCF0784576FF9001A1
:10254000CE04F0E47846F690019174FFF0A3F0A376
:10255000F0A3F0A3F0A3F0A3F0A3F0A3F0A3F0A3E3
:04256000F0A3F022D2
:072DBF0090C1167401F0221F
:10256400E490C18CF090C18D740AF090C19374080A
:10257400F090C19574A0F090C1967403F090C19747
:102584007440F090C1997401F090C1A87480F0E493
:1025940090C1A9F090C1AC7462F090C19F7468F0CE
:1025A40090C1A27434F090C1317412F090C13274AD
:1025B4003CF090C13304F090C13404F090C1357400
:0325C40042F022C0
:102B8E0090B00B74C4F090B010F090B00874B3F025
:102B9E00122DBF12256490B00B74E5F090B0107436
:052BAE00C5F002250046
:1023A700E49001BDF090018BE0FF9001BDE0C39F79
:1023B7005054E0FF9001DCE075F01EA4243FF58245
:1023C700E5F03412F583E5822FF582E43583F58352
:1023D700E49390018CF0EFB4011C9001DDE0540709
:1023E70025E0FF9001C3F090018CE054F1F04FF02D
:1023F7009001DDE004F090018CE090C19AF090012B
:10240700BDE004F0809F90C1987408F0E4F090C19B
:0B241700997409F09001C67401F022D6
:10249900E49001BDF090018BE0FF9001BDE0FEC327
:1024A9009F503F74D32EF582E43401F583E0900107
:1024B9008CF0EEB4011C9001DDE0540725E0FF909B
:1024C90001C3F090018CE054F1F04FF09001DDE090
:1024D90004F090018CE090C19AF09001BDE004F005
:1024E90080B390C1987408F0E4F090C1997409F030
:0724F9009001C67401F022FE
:10281D007F069001D3E4F0A3DFFC9001D37442F066
:10282D00A37410F0900193E09001D5F0543F25E092
:10283D0025E0FF900194E05403FE4F9001D6F0EE99
:10284D0025E025E0FF900193E054C0C41313540319
:09285D004F9001D7F0A37413F0B1
:01286600224F
:10212A007F057E00122C009001C7E0640F60030255
:10213A0021E1900194E020E7030221E17F647E001F
:10214A00122DB4900193E0541F24FE6027146031CD
:10215A0014603B24F4604514606024107079900187
:10216A00DC7401F090018B7416F01223A79001B869
:10217A007401F0229001DC7402F090018B740E80DD
:10218A00189001DC7403F090018B740A800B9001A3
:10219A00DC7404F090018B7406F0801B7846E6909C
:1021AA0001DC700B7405F090018B740AF0800874DE
:1021BA000BF090018B14F00223A79001DC7406F057
:1021CA0090018BF01223A79001B87411F07845762C
:0821DA000190A0307425F022F1
:102736009001C0E070199001C7E024F86002803D66
:102746009001DC740CF090018B7406F00223A790C4
:1027560001C7E024F16023240E70227F647E0012FC
:102766002DB4E49001DCF090018B7406F012281D64
:0E2776001224999001B87402F02212212A2236
:102D1D00758911C28CC28A758CF7758A40C28E7501
:092D2D008DB1758BE075A88E22B2
:072DC6009090627499F02265
:102A300090C1AF74C3F090DAFC740FF090DAA37415
:102A4000E1F090DAA47405F090B0307442F090D8C0
:102A5000007411F090B012743EF0E4782AF6780910
:022A6000F6225C
:072CB400F0122D63122CCF7A
:102CBB0090D005E04440F090A0307480F090C006B6
:042CCB007408F02277
:102B410090A09074FBF090B005746FF07F017E004F
:102B5100122C0090B00574E0F07F017E00122C0071
:072B610090B005742BF02277
:102D630090D005E04403F090A0A174FFF0747FF0CD
:052D730090A091F02288
:102CCF0090D2197401F090D21C74FEF090A090E095
:0B2CDF0054FEF090A0A0E054FEF02294
:1027D1007845E664017044F69001B8E0B4110C78D4
:1027E1004676017406F0E49001C6F09001B8E0B4B9
:1027F10006297F587E02122C009001DC7407F090AC
:10280100018B740AF09001B874FFF01223A7E490D1
:0C28110001C6122CB490024B7401F0229E
:102D360090023DE060097B017A00793612159D7B91
:082D4600017A00790002242249
:062684007E007D007C00D9
:10268A009001F2120DE490D8557480F09001F2E0B6
:10269A00FCA3E0FDA3E0FEA3E0FF7810120DBEEF5D
:1026AA00540FFF90D852EFF09001F2E0FCA3E0FD46
:1026BA00A3E0FEA3E0FF7808120DBE90D851EFF018
:1026CA009001F2A3A3A3E0FF90D850EFF09001F697
:0626DA00E090D853F0224D
:101F7F009001F67412F07F0012268490020EE0900A
:101F8F0001F6F07F0112268490020FE04480900149
:101F9F00F6F07F02122684900210E09001F6F07F97
:101FAF00031226849001F67401F07F04122684E454
:101FBF009001F6F07F05FEFDFC12268AE49001F6F3
:101FCF00F07F06FEFDFC12268A9001F67401F07F69
:101FDF00071226849001F67402F07F08122684E41B
:101FEF009001F6F07F09FEFDFC12268AE49001F6BF
:101FFF00F07F0AFEFDFC12268AE49001F6F07F0BBB
:10200F00FEFDFC12268AE49001F6F07F0DFEFDFC2A
:10201F0012268A9001F67404F07F0E122684E49043
:10202F0001F6F07F0FFEFDFC12268AE49001F6F018
:10203F007F20FEFDFC12268AE49001F6F07F21FE40
:10204F00FDFC12268A9001F67401F07F007E027D5E
:06205F00007C0002268A4D
:102D780090A0467480F090B08C7477F090A048745E
:032D880004F02232
:102D8B0090A0467480F090B08C7477F0E490A048DB
:022D9B00F02224
:1026E00090905174FCF090905774F9F09090587459
:1026F00033F090905A74FCF0E490905BF090905C12
:10270000F090905D7418F090905E7488F090905FF7
:102710007418F09090617411F090B01F740CF090E8
:10272000B04474C4F090B0557404F090B066F0906A
:06273000B02E742CF02213
:10001E009001DE74F0F0E4A3F0A3F0A3F07FC8FE2D
:10002E00122C00E4900247F0A3F0122A62122D3631
:10003E00122D1D122DC6122D78122D4E121F7F90CD
:10004E00023CE0700B122B41122B8E122A30800ACA
:10005E00D2AF90024B7401122CB490023CE07003AC
:10006E001227D190D217E030E629781EE6700302EF
:10007E000390E4F67820F67F64FE122C00122BD744
:10008E001228F9122D8B7FC87E00122C5E122D784D
:10009E000203907820E670030203909001DF740152
:1000AE00F0FF7E00122C009001E0E064017004A3CA
:1000BE00E064F460030203909001DFF0A3F0A3F07C
:1000CE0090B8B0E020E51030E60D90D217E030E6A3
:1000DE000302039002037D90B8B0E020E503020313
:1000EE009020E60302039090D1CCE0FFE4FCFDFEED
:1000FE007810120DD19001E2120DE490D1CDE0FFF7
:10010E00E4FCFDFE9001E2E0F8A3E0F9A3E0FAA31F
:10011E00E02FFFEE3AFEED39FDEC38FC7808120DBB
:10012E00D19001E2120DE490D1CEE0FB9001DEE021
:10013E00FFE4FCFDFEEB5FFF9001E2E0F8A3E0F9C7
:10014E00A3E0FAA3E02FFFEE3AFEED39FDEC38FC0A
:10015E009001E2120DE490D1CFE0FFE4FCFDFE78B9
:10016E0010120DD19001E6120DE490D1D0E0FFE413
:10017E00FCFDFE9001E6E0F8A3E0F9A3E0FAA3E0AF
:10018E002FFFEE3AFEED39FDEC38FC7808120DD15A
:10019E009001E6120DE490D1D1E0FB9001DEE0FF7C
:1001AE00E4FCFDFEEB5FFF9001E6E0F8A3E0F9A3AF
:1001BE00E0FAA3E02FFFEE3AFEED39FDEC38FC90AD
:1001CE0001E6120DE490D1D2E0FFE4FCFDFE7810C2
:1001DE00120DD19001EA120DE490D1D3E0FFE4FCB0
:1001EE00FDFE9001EAE0F8A3E0F9A3E0FAA3E02F08
:1001FE00FFEE3AFEED39FDEC38FC7808120DD19089
:10020E0001EA120DE490D1D4E0FB9001DEE0FFE4B0
:10021E00FCFDFEEB5FFF9001EAE0F8A3E0F9A3E03E
:10022E00FAA3E02FFFEE3AFEED39FDEC38FC90011B
:10023E00EA120DE490D1D5E0FFE4FCFDFE78101239
:10024E000DD19001EE120DE490D1D6E0FFE4FCFD4D
:10025E00FE9001EEE0F8A3E0F9A3E0FAA3E02FFF91
:10026E00EE3AFEED39FDEC38FC7808120DD1900116
:10027E00EE120DE490D1D7E0FB9001DEE0FFE4FC3E
:10028E00FDFEEB5FFF9001EEE0F8A3E0F9A3E0FACC
:10029E00A3E02FFFEE3AFEED39FDEC38FC9001EEB7
:1002AE00120DE49001E6E0FCA3E0FDA3E0FEA3E066
:1002BE00FF9001E2E0F8A3E0F9A3E0FAA3E0FBC3AC
:1002CE00120DAD60030203749001EAE0FCA3E0FDA1
:1002DE00A3E0FEA3E0FF9001E2E0F8A3A3A3E0C336
:1002EE00120DAD60030203749001EEE0FCA3E0FD7D
:1002FE00A3E0FEA3E0FF9001E2E0F8A3A3A3E0C316
:10030E00120DAD70619001EAE0FCA3E0FDA3E0FEEA
:10031E00A3E0FF9001E6E0F8A3E0F9A3E0FAA3E082
:10032E00FBC3120DAD703F9001EEE0FCA3E0FDA308
:10033E00E0FEA3E0FF9001E6E0F8A3A3A3E0C31262
:10034E000DAD70229001EEE0FCA3E0FDA3E0FEA354
:10035E00E0FF9001EAE0F8A3E0F9A3E0FAA3E0FBE6
:10036E00C3120DAD601C90905174F0F074FFF090BC
:10037E00900774F7F090900D74DFF074FFF090908A
:10038E0007F09001DFE070030200689001E1E004E5
:0C039E00F070069001E0E004F00200683E
:102A93000F122ABC0F122ABC0F122ABC7F369002D7
:102AA3001AE0C313FEEEFD7EC2122ABC90021AE0A6
:092AB300C313A3E013FD0F7EC262
:072ABC008F828E83EDF022F2
:102CEA00EF2BFFEE3AFEED39FDEC38FC120DE47FD6
:032CFA00B37EB8EE
:072CFD008F828E83E0FF22AD
:102C5E00EF1FAA0670011E4A6013E4FCFDC3ED943B
:0D2C6E005EEC940150EA0DBD00010C80F0F9
:012C7B002236
:100663007D107F837ED2122ABC7D217F347EA0122F
:100673002ABC7F327E00122C5E7FB17EB8122CFD25
:10068300E4FCFDFE9001F2120DE47FB27EB8122C61
:10069300FDE4FCFDFEC004C005C006C0079001F2E6
:1006A300E0FCA3E0FDA3E0FEA3E0FF7808120DD178
:1006B300D003D002D001D0009001F2122CEAE4FC66
:1006C300FDFEC004C005C006C0079001F2E0FCA314
:1006D300E0FDA3E0FEA3E0FF7808120DD1D003D024
:1006E30002D001D000EF2BFFEE3AFEED39FDEC38DE
:1006F300FC9001F2120DE49001F2E0FCA3E0FDA3F3
:10070300E0FEA3E0FFE47B02FAF9F8120C909001FB
:10071300F2120DE47D017F347EA0122ABC7F897E14
:10072300D2122CFDEF9001F6F0A3E4F07F8A7ED283
:10073300122CFD9001F7E02FF09001F6E03400F069
:10074300A3E025E0F09001F6E033F07F8B122CFD5F
:10075300EF9001F8F0A3E4F07F8C7ED2122CFD9091
:1007630001F9E02FF09001F8E03400F0A3E025E078
:10077300F09001F8E033F07F9C122CFDEF9001FA2A
:10078300F0A3E4F07F9D7ED2122CFD9001FBE02FBD
:10079300F09001FAE03400F0A3E025E0F09001FAD4
:1007A300E033F07F94122CFDEF9001FCF0A3E4F012
:1007B3007F957ED2122CFD9001FDE02FF09001FC7D
:1007C300E03400F0A3E025E0F09001FCE033F07F9B
:1007D30098122CFDEF7B00FA7F997ED2122CFDEB51
:1007E3002FFBE43AFAEB25E0FBEA33FA7F9E122C67
:1007F300FDEF9001FEF0A3E4F07F9F7ED2122CFD6B
:100803009001FFE02FF09001FEE03400F07F96129C
:100813002CFDEF900200F0A3E4F07F977ED2122C20
:10082300FD900201E02FF0900200E03400F07F8899
:10083300122CFD900202EFF07F86122CFD90020332
:10084300EFF07F87122CFD900204EFF07FA0122CB3
:10085300FDEF5402C313900205F07FA0122CFDEFAD
:100863005401F99001F2E0FCA3E0FDA3E0FEA3E054
:10087300FF900214120DE49001F6E0FFA3E0900252
:1008830018CFF0A3EFF09001F8E0FFA3E090021A75
:10089300CFF0A3EFF09001FAE0FFA3E090021CCFAA
:1008A300F0A3EFF09001FCE0FFA3E090021ECFF075
:1008B300A3EFF0AE02AF03A3EEF0A3EFF09001FEBF
:1008C300E0FFA3E0900222CFF0A3EFF0900200E05C
:1008D300FFA3E0900224CFF0A3EFF0900202E09098
:1008E3000226F0900203E0900227F0900204E090C9
:1008F3000228F0900205E0900229F0AF01A3EFF087
:020903007F0172
:0109050022CF
:10140100E4F9FBFD7F507EA0122ABC7D020F122A57
:10141100BC0D0F122ABCE4FD0F122ABC7DF10F1284
:101421002ABC7F50122CFDEF4402FD7F50122ABCD2
:101431007F647E00122C5E7F0C7EA0122CFDEF5487
:101441000260097F0C122CFDEF5401FB7F507EA03E
:10145100122CFDEF54FDFD7F50122ABC7FEB7ED193
:10146100122CFDEF5406F960030214FA900246E0D3
:10147100FC702AEBB401137D047F507EA0122ABCBC
:10148100E4FD7F55122ABC021597E4FD7F507EA032
:10149100122ABC7F55122ABC7D03021597EC640207
:1014A1007026EBB4010DE4FD7F507EA0122ABC7DB5
:1014B100F0800BE4FD7F507EA0122ABC7DE07F55B9
:1014C100122ABCE4FD021597900246E06401600314
:1014D10002159CEBB4010DE4FD7F507EA0122ABCE5
:1014E1007DFC800BE4FD7F507EA0122ABC7DEC7F49
:1014F10055122ABCE4FD021597E96402704C900272
:1015010046E0FC7013FD7F507EA0122ABC7D037F54
:1015110055122ABC7D3C807EECB40214E4FD7F5060
:101521007EA0122ABC7D037F55122ABCE4FD806691
:10153100900246E0640170637D047F507EA0122A10
:10154100BCE4FD7F55122ABC804CE96404704C90C8
:101551000246E0FC7011FD7F507EA0122ABC7F552F
:10156100122ABC7D3C802FECB402127D047F507E98
:10157100A0122ABCE4FD7F55122ABC8019900246B4
:10158100E0B40117E4FD7F507EA0122ABC7D0C7FE0
:0B15910055122ABCE4FD7F57122ABC53
:01159C00222C
:1028B000900229E06401601C7F057ED2122CFDEF9E
:1028C0004404FD7F05122ABC122CFDEF54F7FD7F56
:1028D00005122ABC90022AE06401601C7F057ED2AA
:1028E000122CFDEF4410FD7F05122ABC122CFDEFC7
:0928F00054DFFD7F05122ABC2211
:102983007D437F357EA0122ABC7D210F122ABC7D98
:10299300040F122ABC7D320F122ABC7D100F122A9B
:1029A300BC7D430F122ABC7D210F122ABC7D040F6C
:0F29B300122ABC7D320F122ABC7D100F022ABCE3
:1020650090023EE0FCB401047DFF8011ECB4021443
:1020750090023FE0B401047DF580027DDD7F437E63
:10208500A0122ABC7D347F557EB0122ABC7D9F7F6D
:102095005D122ABC7F5F122ABC7D8F7F61122ABC2C
:1020A5007D9F7F63122ABC7F65122ABC7D347F77B2
:1020B500122ABC7D9F7F7F122ABC7F81122ABC7D9C
:1020C5008F7F83122ABC7D9F7F85122ABC7F871252
:1020D5002ABC90023FE0704C7D347F44122ABC7DBF
:1020E5009F7F4C122ABC7F4E122ABC7D8F7F5012D7
:1020F5002ABC7D9F7F52122ABC7F54122ABC7D3494
:102105007F66122ABC7D9F7F6E122ABC7F70122AC1
:10211500BC7D8F7F72122ABC7D9F7F74122ABC7F83
:0521250076122ABC2225
:100DF000E49001F2F0A3F0A3F07BE87A03F9F89015
:100E00000214E0FCA3E0FDA3E0FEA3E0FF120D1B33
:100E1000900240E014601104702E7C007D03120CDF
:100E200013900211E0FD800EEF25E0FFEE33FE90FF
:100E30000211E0FD7C00120C2590023EE0FD7C00DA
:100E4000120C259001F2EFF09001F2E004F0E0C303
:100E5000941950037419F07D387F3A7EB0122ABC81
:100E60007D010F122ABC9001F2E0FFC394BB501524
:100E7000EFC39450400F7D187F3E122ABC9001F3BF
:100E80007401F080619001F2E0FFC394505017EFBD
:100E9000C3942840117D087F3E7EB0122ABC900189
:100EA000F37402F080409001F2E0FFC394285017E1
:100EB000EFC3941440117D287F3E7EB0122ABC906F
:100EC00001F37404F0801F9001F2E0FFC39414500A
:100ED00015EFC3940A400F7D387F3E7EB0122ABCC6
:100EE0009001F37408F07D107F3F7EB0122ABC0F92
:100EF000122ABC9001F3E0FF9001F2E08FF0A4AE63
:100F0000F07803C333CE33CED8F9FF7C007D1B12BB
:100F10000C25AD077F417EB0122ABC7D087F3E12B2
:100F20002ABC7D100F122ABC0F122ABC7D230F127F
:100F30002ABC7DDF7F0F7E90122ABC7F447EB012D8
:100F40002CFDEF54BFFD7F44122ABC7F017E0012AE
:100F50002C5E7DFF7F0F7E90122ABC7F447EB012F4
:100F60002CFDEF4440FD7F44122ABC7D1A7F347E65
:100F7000A0122ABC7F0A7E00122C5E7FB17EB812BE
:100F80002CFDE4FCFDFE900241120DE47FB27EB820
:100F9000122CFDE4FCFDFEC004C005C006C0079095
:100FA0000241E0FCA3E0FDA3E0FEA3E0FF7808120D
:100FB0000DD1D003D002D001D000900241122CEA12
:100FC000E4FCFDFEC004C005C006C007900241E07D
:100FD000FCA3E0FDA3E0FEA3E0FF7808120DD1D052
:100FE00003D002D001D000EF2BFFEE3AFEED39FD29
:100FF000EC38FC900241120DE47D017F347EA0129A
:101000002ABCE47F04FE1DFC900241E0F8A3E0F955
:0E101000A3E0FAA3E0FB120C909001F4EFF0C5
:01101E0022AF
:1019E900E47BE87A03F9F8900241E0FCA3E0FDA367
:1019F900E0FEA3E0FF120D1BAC07EC75F01484FBAD
:101A0900EC75F012842402FAEC75F0068404900156
:101A1900F2F0EC75F00A8404A3F0EC75F00C840480
:101A2900A3F0EC75F01984A3F0EC75F00584F97D49
:101A3900BE7F0A7E90122ABC0D122ABC7F447EB05A
:101A4900122CFDEF4480FD7F44122ABC7DC07EA08C
:101A5900122ABC7D807F49122ABCE4FDFF7EC21296
:101A69002ABC0F122ABC7F56122ABC7D0F7F201276
:101A79002ABC7D117F25122ABC7F2C122ABC900119
:101A8900F4E0FD7F22122ABC9001F5E0FD0F122A35
:101A9900BCAD010F122ABCAD027F2F122ABCAD03C7
:101AA9000F122ABC7DAA0F122ABCAD027F52122A3C
:101AB900BCAD030F122ABC7DAA0F122ABC90023FAB
:101AC900E07028AD037F26122ABCAD020F122ABC92
:101AD9007DAA7F2E122ABCAD027F32122ABCAD0329
:101AE9000F122ABC7DAA7F51122ABCEC75F00A8418
:101AF9002408FD7F287EC2122ABCEB2AFF9001F23E
:101B0900E02FFD7F2A122ABC7D107F1B122ABC7D83
:0B1B1900507F1D122ABC7F2D022ABC49
:1009060090021AE0FD7F0C7EC2122ABC90021BE008
:10091600FD0F122ABC900228E0FF900227E02FFD6F
:100926007F35122ABC900224E0FD7F06122ABC9075
:100936000225E0FD0F122ABC7D557F0F122ABC90BE
:10094600023EE064016003020A2F900249E024F8A7
:10095600606E24086003020B9890021AE0FD7F384F
:100966007EC2122ABC90021BE0FD0F122ABC900226
:1009760027E0FD7F04122ABC900228E0FD0F122A10
:10098600BC900226E0FD7F08122ABC7D1E0F122AAB
:10099600BC0F122ABC0F122ABC900240E0FC700B5E
:1009A6007D267F17122ABC7D3E8079EC64016003A8
:1009B600020B987D247F177EC2122ABC7D1C8064A0
:1009C60090021AE0FD7F387EC2122ABC90021BE01C
:1009D600FD0F122ABC900228E0FF900227E02F1498
:1009E600FD7F04122ABC7D010F122ABC1D7F08124E
:1009F6002ABC0D0F122ABC0F122ABC0F122ABC9059
:100A06000240E0FC700B7D267F17122ABC7D2480F5
:100A160013EC64016003020B987D247F177EC212DB
:100A26002ABC7D1E7F12020B9590021AE0FEA3E0FF
:100A36007802CEC313CE13D8F9EEFD7F107EC21214
:100A46002ABC90021AE0FEA3E07802CEC313CE13AE
:100A5600D8F9FD7F117EC2122ABC900249E024F823
:100A66007003020B0424086003020B987F38122AD5
:100A7600A1900227E0FD7F04122ABC900228E0FD27
:100A86000F122ABC900226E0FD7F08122ABC7D0ABE
:100A9600122A93900227E0FD7F57122ABC90022863
:100AA600E0FD0F122ABC900226E0FD0F122ABC7D43
:100AB6000A0F122ABC0F122ABC0F122ABC9002403F
:100AC600E0FC70187DA67F17122ABC7F4C122ABC48
:100AD6007D3E7F12122ABC7F5D020B95EC6401609D
:100AE60003020B987DA47F177EC2122ABC7F4C128C
:100AF6002ABC7D1C7F12122ABC7F5D020B959002D8
:100B06001AE0C313FEEEFD7F38122AAA900228E0EF
:100B1600FF900227E02F14FD7F04122ABC7D010FEF
:100B2600122ABC1D7F08122ABC0D122A9390022895
:100B3600E0FF900227E02F14FD7F57122ABC7D01AB
:100B46000F122ABC1D0F122ABC0D0F122ABC0F123F
:100B56002ABC0F122ABC900240E0FC70177DA67FCB
:100B660017122ABC7F4C122ABC7D247F12122ABC83
:100B76007F5D801BECB4011A7DA47F177EC2122A0A
:100B8600BC7F4C122ABC7D1E7F12122ABC7F5D12CE
:030B96002ABC2254
:101D8700E4FD7F1C7EC2122ABC7D807F14122ABC10
:101D9700900211E0147003021E3D14606814603451
:101DA700146003021E70900249E0FF900212E04F98
:101DB700FD7F017EC2122ABC900249E0FF90021209
:101DC700E04FFD7F56122ABC7D017F02122ABC7D9F
:101DD70055021E6C900212E04430FF900249E04F1A
:101DE700FD7F017EC2122ABC900212E04430FF90B0
:101DF7000249E04FFD7F56122ABC7D017F02122A5D
:101E0700BC7D908060900212E04420FF900249E080
:101E17004FFD7F017EC2122ABC900212E04420FFD0
:101E2700900249E04FFD7F56122ABC7D027F0212C5
:101E37002ABC7D58802F900212E04410FF9002497F
:101E4700E04FFD7F017EC2122ABC900212E04410CF
:101E5700FF900249E04FFD7F56122ABC7D037F02A7
:101E6700122ABCE4FD0F122ABC7F147E00122C5EDE
:0C1E7700900213E0FD7F007EC2022ABC36
:102BD700120663122983122065120DF01219E9906B
:102BE7000249E07003122AEE1214011228B01209EA
:042BF70006021D872E
:101B240005010005110005100005290015360015F2
:101B34003A00B9FF8394BA7383B16C151524E41188
:101B4400F180E4D72380C0D258B200641007201C6F
:101B540008081C4D00B400FF035A035A035A016AD3
:101B6400016AD3000600401A080032100700075427
:101B7400150F0504021210050733330B0B3710073A
:101B840007D5191918181A1A1B1B04050607000192
:101B940002032021181818181818181818181818DB
:101BA4002223181818181818181818181818D618DE
:101BB4001819191A1A1B1B0302010007060504232E
:101BC4002218181818181818181818181821201876
:101BD4001818181818181818181818E000060C31D6
:101BE400343F1D41060A0C170F1215131407121562
:101BF4001600060B30343F1D40070A0D180E121450
:101C0400121408131419B66060CC09D255C03014EC
:101C1400BF410E01C700C040C0DF8EFF1B36FF1B53
:101C24003AFF1B3DFF1B4DFF1B59FF1B66FF1B8526
:101C3400FF1BB2FF1BDFFF1C0AFF1C0DFF1C0FFF65
:101C44001C11FF1C14FF1C18FF1C1D0403100C0D99
:0B1C54001F2D2D2B03020203040502CC
:061E830093FF7BFF7D02CE
:101E89009001F4EFF0A3EDF0A3EBF0A3EAF0A3E9DE
:011E9900F058
:101E9A00E4A3F07D407F1C7EC2122ABC9001F5E0CB
:101EAA006402704F7D0C7F187EC2122ABC7D047FAB
:101EBA00197EC2122ABC9001F4E0FD7F347EC21260
:101ECA002ABC9001F6E0FBA3E0FAA3E0F9120B9911
:101EDA00FD7F347EC2122ABC9001F6E0FBA3E0FA31
:101EEA00A3E0F9900001120BB2FD7F347EC2122AE0
:101EFA00BC80727D0E7F187EC2122ABC9001F5E06A
:101F0A002406FD7F197EC2122ABC9001F4E0FD7FEF
:101F1A00347EC2122ABC9001F5E0FD7F347EC212E3
:101F2A002ABCE4FD7F347EC2122ABCE49001F9F097
:101F3A009001F5E0FF9001F9E0C39F50289001F667
:101F4A00E0FBA3E0FAA3E0F9120B99FD7F347EC20D
:101F5A00122ABC9001F7E475F001120C7A9001F98B
:101F6A00E004F080CB7F017E00122C5EE4FD7F1836
:051F7A007EC2022ABC3A
:102AEE00E49001F2F0A3F0901B277A1B7928121EB6
:102AFE00837F967E00122C5E901B2DE47A1B792E1E
:0A2B0E00121E837FC87E00022C5EB9
:10232700022BB3E493A3F8E493A34003F68001F2EE
:1023370008DFF48029E493A3F85407240CC8C333B7
:10234700C4540F4420C8834004F456800146F6DF86
:10235700E4800B010204081020408090101FE47EE7
:10236700019360BCA3FF543F30E509541FFEE4937B
:10237700A360010ECF54C025E060A840B8E493A342
:10238700FAE493A3F8E493A3C8C582C8CAC583CA6D
:10239700F0A3C8C582C8CAC583CADFE9DEE780BE25
:01123E0000AF
:100B9900BB010689828A83E0225002E722BBFE025A
:090BA900E32289828A83E493228D
:100BB200BB010CE58229F582E5833AF583E02250F8
:100BC20006E92582F8E622BBFE06E92582F8E22242
:0D0BD200E58229F582E5833AF583E493225C
:100BDF00BB010689828A83F0225002F722BBFE01F5
:020BEF00F322EF
:100BF100F8BB010DE58229F582E5833AF583E8F03A
:100C0100225006E92582C8F622BBFE05E92582C8E5
:020C1100F222CD
:100C1300EF8DF0A4A8F0CF8CF0A428CE8DF0A42EF5
:020C2300FE22AF
:100C2500BC000BBE0029EF8DF084FFADF022E4CCB3
:100C3500F875F008EF2FFFEE33FEEC33FCEE9DEC7C
:100C4500984005FCEE9DFE0FD5F0E9E4CEFD22EDC2
:100C5500F8F5F0EE8420D21CFEADF075F008EF2F0C
:100C6500FFED33FD4007985006D5F0F222C398FDFD
:050C75000FD5F0EA229A
:100C7A00C5F0F8A3E028F0C5F0F8E5821582700205
:060C8A001583E038F022A2
:100C9000E88FF0A4CC8BF0A42CFCE98EF0A42CFC03
:100CA0008AF0EDA42CFCEA8EF0A4CDA8F08BF0A481
:100CB0002DCC3825F0FDE98FF0A42CCD35F0FCEBE0
:100CC0008EF0A4FEA9F0EB8FF0A4CFC5F02ECD39A5
:0F0CD000FEE43CFCEAA42DCE35F0FDE43CFC2212
:100CDF0075F008758200EF2FFFEE33FECD33CDCCCC
:100CEF0033CCC58233C5829BED9AEC99E58298404F
:100CFF000CF582EE9BFEED9AFDEC99FC0FD5F0D62C
:100D0F00E4CEFBE4CDFAE4CCF9A88222B800C1B955
:100D1F000059BA002DEC8BF084CFCECDFCE5F0CB93
:100D2F00F97818EF2FFFEE33FEED33FDEC33FCEBCC
:100D3F0033FB10D703994004EB99FB0FD8E5E4F987
:100D4F00FA227818EF2FFFEE33FEED33FDEC33FC74
:100D5F00C933C910D7059BE99A4007EC9BFCE99A68
:100D6F00F90FD8E0E4C9FAE4CCFB2275F010EF2FAD
:100D7F00FFEE33FEED33FDCC33CCC833C810D707AD
:100D8F009BEC9AE899400AED9BFDEC9AFCE899F8E8
:0E0D9F000FD5F0DAE4CDFBE4CCFAE4C8F9227B
:100DAD00EB9FF5F0EA9E42F0E99D42F0E89C45F09C
:010DBD002213
:100DBE00E8600FECC313FCED13FDEE13FEEF13FF13
:030DCE00D8F12237
:100DD100E8600FEFC333FFEE33FEED33FDEC33FC80
:030DE100D8F12224
:0C0DE400ECF0A3EDF0A3EEF0A3EFF02282
:00000001FF
