:020000040800F2
:10000000D80600208901000891010008930100082A
:100010009501000897010008990100080000000000
:100020000000000000000000000000009B0100082C
:100030009D010008000000009F010008A1010008C8
:10004000A3010008A3010008A3010008A301000800
:10005000A3010008A3010008A3010008A3010008F0
:10006000A3010008A3010008A3010008A3010008E0
:10007000A3010008A3010008A3010008A3010008D0
:10008000A3010008A3010008A3010008A3010008C0
:10009000A3010008A3010008A3010008A3010008B0
:1000A000A3010008A3010008A3010008A3010008A0
:1000B000A3010008A3010008A3010008A301000890
:1000C000A3010008A3010008A3010008A301000880
:1000D000A301000881050008A3010008A30100088E
:1000E000A3010008A3010008A301000800F002F822
:1000F00000F03AF80AA090E8000C82448344AAF188
:100100000107DA4501D100F02FF8AFF2090EBAE885
:100110000F0013F0010F18BFFB1A43F0010318473B
:100120008C050000AC050000103A24BF78C878C1E7
:10013000FAD8520724BF30C830C144BF04680C60ED
:10014000704700000023002400250026103A28BF35
:1001500078C1FBD8520728BF30C148BF0B60704739
:100160001FB51FBD10B510BD00F031F81146FFF7E7
:10017000F7FF00F079FA00F04FF803B4FFF7F2FF51
:1001800003BC00F057F800000948804709480047C1
:10019000FEE7FEE7FEE7FEE7FEE7FEE7FEE7FEE737
:1001A000FEE7FEE704480549054A064B7047000094
:1001B00021050008ED000008D8000020D806002026
:1001C000D8020020D802002070477047704775465B
:1001D00000F02CF8AE4605006946534620F00700B3
:1001E000854618B020B5FFF7DDFFBDE820404FF091
:1001F00000064FF000074FF000084FF0000B21F011
:100200000701AC46ACE8C009ACE8C009ACE8C009DD
:10021000ACE8C0098D46704710B50446AFF30080C6
:100220002046BDE81040FFF7A8BF00000048704717
:100230007800002001491820ABBEFEE7260002002E
:100240007047000010B50121082000F0E5F80220F9
:100250001D49088088701020C8701C4800F03AF8CA
:1002600002211A4800F0D5F84FF480401649088062
:10027000022088701020C870144800F02BF84FF44A
:100280008041124800F0C5F801200F490880022083
:1002900088702820C8700D4800F01CF8012110203B
:1002A00000F0BAF84FF40050074908800220887027
:1002B0001020C870064800F00DF84FF400510448B3
:1002C00000F0A5F810BD000000000020000C014067
:1002D000001001402DE9F0410246002500260020D3
:1002E00000230024002791F803C00CF00F0591F8BB
:1002F00003C00CF0100CBCF1000F03D091F802C049
:100300004CEA050591F800C0BCF1000F31D014682B
:1003100000202BE04FF0010C0CFA00F3B1F800C004
:100320000CEA03069E4220D183004FF00F0C0CFA1A
:1003300003F7BC4305FA03FC4CEA040491F803C03C
:10034000BCF1280F06D14FF0010C0CFA00FCC2F8EA
:1003500014C00AE091F803C0BCF1480F05D14FF07A
:10036000010C0CFA00FCC2F810C0401C0828D1D3C4
:100370001460B1F800C0BCF1FF0F34DD54680020F8
:100380002EE000F1080C4FF0010808FA0CF3B1F868
:1003900000C00CEA03069E4221D183004FF00F0CEF
:1003A0000CFA03F7BC4305FA03FC4CEA040491F889
:1003B00003C0BCF1280F05D100F1080C08FA0CF8B5
:1003C000C2F8148091F803C0BCF1480F07D100F1C6
:1003D000080C4FF0010808FA0CF8C2F81080401C15
:1003E0000828CED35460BDE8F0810246002093680F
:1003F0000B400BB1012000E00020704702460020B6
:10040000D3680B400BB1012000E000207047416130
:10041000704701617047000029B1064A92690243A2
:10042000044B9A6104E0034A92698243014B9A614A
:10043000704700000010024010B500F001F810BD38
:100440000CB50020019000903348006840F48030E3
:100450003149086000BF3048006800F40030009067
:100460000198401C0190009818B90198B0F5A06F50
:10047000F1D12948006800F4003010B1012000904B
:1004800001E0002000900098012843D12348006833
:1004900040F01000214908600846006820F0030081
:1004A00008600846006840F0020008601A4840688A
:1004B000194948600846406848600846406840F46A
:1004C000806048600846406820F47C104860084618
:1004D000406840F4E81048600846006840F08070CA
:1004E000086000BF0C48006800F000700028F9D0D8
:1004F0000948406820F00300074948600846406802
:1005000040F00200486000BF0348406800F00C0063
:100510000828F9D10CBD0000001002400020024064
:1005200010B51348006840F0010011490860084602
:100530004068104908400E494860084600680E4966
:1005400008400B4908600846006820F480200860D5
:100550000846406820F4FE0048604FF41F008860A1
:10056000FFF76AFF4FF000600449086010BD00000B
:10057000001002400000FFF8FFFFF6FE08ED00E06B
:1005800010B540F225510C4800F01CF890B10A4813
:1005900000F042F809490A680968491C074B1960CC
:1005A000074941F8220018460068132802D30020AA
:1005B0001946086010BD00000038014058000020B6
:1005C0006400002070B502460024002300250020AE
:1005D00040F66A16B14200D100BFC1F3421501F0E6
:1005E0001F03012606FA03F3012D02D19689334039
:1005F00006E0022D02D1168A334001E0968A33408C
:100600000C12012606FA04F41688344013B10CB11A
:10061000012000E0002070BD01468888C0F308007A
:100620007047002107E0002200E0521C42F6FF2341
:100630009A42FAD3491C8142F5D3704710B54FF462
:1006400000510848FFF7DAFE0446012C04D14103AB
:100650000448FFF7DCFE04E04FF400510148FFF7C7
:10066000D8FE10BD00100140C820FFF7DAFFFFF7E9
:10067000E9FD16E001210B48FFF7B7FE012810D174
:100680000948006818B901200749086009E0FFF728
:10069000D5FFFA20FFF7C5FFFFF7D0FFFA20FFF7DD
:1006A000C0FFE7E7000C014060000020CC06000816
:1006B0000000002064000000280100083007000846
:1006C00064000020740600004401000800000000DF
:1006D000FF000000570000000000000002000000C2
:1006E00059000000FF00000057000000000000005B
:1006F0000100000058000000FF000000570000004B
:1007000000000000430000009A000000FF0000000D
:10071000570000000000000053000000AA00000085
:1007200000000000000000000000000000000000C9
:04000005080000ED02
:00000001FF
